:020000024000BC
:1040000000000120899B060010D001000100000083
:10401000DFF804D025F0B8BD000001204FF02000EB
:1040200080F311884FF0020080F31488BFF36F8F84
:10403000684680F309884EF00D0E7047EFF3098053
:10404000A0F1300181F309884FF00101EFF30582FF
:10405000EFF3118320E9FE4F044625F08DFE204644
:10406000B0E8FE4F80F3098883F31188704700B5EC
:1040700081B0EFF30580A0F10F0025F081FE01B0C3
:1040800000BDEFF3098CACF1200080F309884FF0FC
:104090008073034A03492CE90F002CE90F00704795
:1040A000CD9D0600A9400400074B00DFEFF3098C0B
:1040B0000CF1200C8CF3098870472AF09BB8EFF3C1
:1040C000098C9CE80F001847AD400400EFF309800D
:1040D000A0F1080181F3098820E91040044625F089
:1040E00011FF2146B1E8104081F3098800287FF4D0
:1040F000A5AF7047D0F800D0D0F804F080B586B0F6
:1041000002AF78607B681B78802B00F09A80802B50
:1041100000F3A980402B75D0402B00F3A480102B16
:1041200000F09380102B00F39E80012B03D0022B14
:1041300000F0928097E001F027FE034619464D48B3
:104140001EF034F87B681B7B002B0DD07B6819694F
:104150007B685A697B6898697B681B7F009303467C
:1041600045481EF023F802E044481EF01FF80023E3
:10417000FB603FE0F96842481EF018F87A68FB6877
:104180000C335B0013445B8919463E481EF00EF861
:104190007B6893F888301A46FB68934218DA7A688D
:1041A000FB6808331B0113440C3319687A68FB68F9
:1041B00008331B011344103318687A68FB6808330E
:1041C0001B01134414331B6802462F481DF0EEFFF9
:1041D0007A68FB680E339B00134499687A68FB6821
:1041E000134478331B781A4628481DF0DFFFFB681C
:1041F0000133FB607B6893F820301A46FB689342DA
:10420000B8DB33E07B681B890C3BBB60BB68002BD1
:104210002BDDB9681E481DF0C9FF0023FB600BE0D1
:104220007A68FB6813440C331B78194619481DF053
:10423000BDFFFB680133FB60FA68BB689A42EFDBA5
:1042400014E015481EF01CF810E07B681B7B194633
:1042500012481DF0ABFF09E07B681B7B1946104834
:104260001DF0A4FF02E000BF00E000BF00BF103758
:10427000BD4680BD80FA060088FA0600A0FA060056
:10428000ACFA0600B4FA0600BCFA0600CCFA060046
:10429000D8FA0600F0FA0600F8FA060004FB060059
:1042A0001CFB060080B5ECB000AF07F5D873A3F592
:1042B000D673186007F5D873A3F2911310221A7001
:1042C00079481DF0DDFF022387F8A031012387F82C
:1042D000A131012387F8A231012387F8A3310023FC
:1042E00087F8A431012387F8A531012387F8A63187
:1042F000002387F8A731002387F8A83107F5D0738A
:10430000184601F0E0FD0346002B0AD007F5D073F4
:10431000184601F0D8FD03461A46822163481DF075
:1043200045FF07F5D073184601F000FE0346002B49
:104330000AD007F5D073184601F0F8FD03461A4677
:1043400085215A481DF032FF0121012001F067FE4E
:104350000346002B09D00121012001F060FE034635
:104360001A46882151481DF021FF022001F017FE56
:104370000346002B08D0022001F011FE03461A4626
:104380008B214A481DF012FF0021532001F0B4FE9A
:104390000F2387F89F3107F29F1101230122192073
:1043A00001F03BFDC7F8AC01D7F8AC31002B19D1B7
:1043B00007F29F1301221946192001F001FDC7F8E9
:1043C000AC01D7F8AC31002B06D197F89F311946D4
:1043D00037481DF0EBFE0AE0D7F8AC1135481DF068
:1043E000E5FE04E0D7F8AC1133481DF0DFFE07F11D
:1043F0001F0207F120031146184601F03AFEC7F8E4
:10440000AC01D7F8AC31002B2BD107F5D873A3F250
:1044100091131B78194629481DF0C8FE0023C7F8E0
:10442000AC3110E007F5D873A3F5C872D7F8AC31FA
:1044300013441B78194622481DF0B8FED7F8AC315A
:104440000133C7F8AC3107F5D873A3F291131B7889
:104450001A46D7F8AC319342E4DB0A201DF0BAFECD
:104460000AE007F5D873A3F291131B78D7F8AC21B3
:10447000194614481DF09AFE07F13003184601F062
:104480004BFEC7F8AC01D7F8AC31002B05D0D7F8FC
:10449000AC110D481DF08AFEEEE707F13003184617
:1044A000FFF72CFEE8E700BF34FB06006CFB0600BC
:1044B00084FB0600A0FB0600B8FB0600D0FB06004C
:1044C000E0FB0600E8FB06000CFC060080B584B0AB
:1044D00002AF01F061FE01F05BFE01F05BFEFB1C30
:1044E00001934FF4406300930B4B00220B491420BF
:1044F00001F04EFC78607B68002B04D07A68CF21F5
:1045000007481DF053FEFB78184601F051FC00BF30
:104510000837BD4680BD00BF24FC0600A54204004C
:104520006CFB06002DE9F04F87B08A46BDF840903D
:104530001C49804693460024B82000FB04F5194A24
:104540004E5D4F1906BB01213970A8F114010929EC
:1045500023D84846059204931DF034FA059AC7F80B
:10456000B40005F10807B035174415448DE8010281
:10457000049B0397404602955A46514629F028F974
:10458000119B30461C700AE0042C08BF052401343E
:10459000042CD2DD6FF0010001E04FF0FF3007B0D6
:1045A000BDE8F08F70480020042808B511D8B82362
:1045B000094A58431318125C5AB1084A107828B1B6
:1045C000D3F8B00029F02CF9002008BD01225A7060
:1045D00008BD4FF0FF3008BD70480020084C002097
:1045E00008B50E490E4805F097FD0E490E4805F036
:1045F00093FD0E490E4805F08FFD00F0CBF80D49F4
:104600000D4805F089FD0D490D4805F085FD0D4962
:104610000D48BDE8084005F07FBD00BF28FC06003E
:10462000843A00202DFC0600C48C002034FC0600D7
:10463000003A002037FC0600A48E00203BFC060058
:10464000B43B002042FC06003039002038B502F0AF
:1046500055F90023454A0521184628F07DFD18B17B
:10466000434AE82128F05AFE01F0DCFD06F0D8FFAD
:1046700007F0A8FB10B102F0B3FB01E002F00EFC62
:1046800025F0C4FE70B925F0E7FEBFF34F8F39491E
:10469000394BCA6802F4E0621343CB60BFF34F8F1B
:1046A00000BFFDE706F078FB06F07AFB03F034FE6E
:1046B00003F06AFE002331491A465A54C818B83329
:1046C000B3F5667F42702D4DF7D1FFF7FFFE04F082
:1046D000D5FE08B104F098FE04F0CAFE88B905F0D2
:1046E000E3FD60B1264805F0C7FCFFF779FF05F050
:1046F000F1FC07F0F1FA20B105F070FD01E026F0C1
:1047000039F803F0ADFF03F0C9FF04F083FB04F0B8
:104710009FFB04F0CBF804F0FFF803F013F803F06C
:1047200009F807F03FFA08B900F03CF807F008FA7A
:1047300020B103F0FFFB03F03BFC07E007F010FAA9
:104740000028F6D107F01EFA0028F2D10D4B012205
:104750001A7000242B195A781AB1D3F8B00029F036
:104760005FF8B834B4F5667FF4D138BDF84700205F
:1047700046FC060000ED00E00400FA057048002049
:1047800051FC0600084C0020014B1878704700BF10
:10479000304C0020024B1B6803B11847704700BF24
:1047A0001C4C0020024B1B6803B11847704700BF28
:1047B000244C0020024B1B6803B11847704700BF10
:1047C000204C0020024B01221A7002F065BE00BF8F
:1047D000184C0020014B1878704700BF184C00207F
:1047E000014B00221A707047E0380020014B012273
:1047F0001A707047E0380020024B1B6803B118475D
:10480000704700BF144C0020024B1B6803B11847CF
:10481000704700BF3C4C0020024B1B6803B1184797
:10482000704700BF2C4C0020034B1B6803B1184796
:104830004FF0FF30704700BF344C0020034B1B6823
:1048400003B118474FF0FF30704700BF284C0020DD
:10485000024B1B6803B11847704700BF0C4C002087
:10486000024B1B6803B11847704700BF444C00203F
:10487000024B1B6803B11847704700BF384C00203B
:10488000034B1B6803B118474FF0FF30704700BF60
:10489000404C0020024B1B6803B11847704700BF13
:1048A000104C00200000000008B551EC100B04A3D0
:1048B000D3E900231BF0B4FE1CF090FB08BD00BF41
:1048C000000000403333EF4037B500240D46694601
:1048D00000948DF8044016F0A2FB9DF801209DF88D
:1048E00000309DF8041003EB02239DF8022003EB37
:1048F00002439DF8032003EB0263E01841F100013D
:10490000C5E9000103B030BD07B56946FFF7DCFF1C
:104910000098019B000A40EA036003B05DF804FBC5
:1049200037B5144602A900221D46002361E902237F
:10493000FFF7CAFFDDE90023A41A65EB0305DDE9F3
:104940000623A41A65EB0305084AFF232B407F21A9
:104950006FF48030994202EA040208BF904226BFF9
:10496000100C40EA0340002003B030BD0000FFFF00
:1049700010B5044617F04CF894F89C3D3BB1002369
:1049800084F89C3D204617F018F802F00DFA04F563
:10499000616029F02DF8002384F89A3D94F8993D40
:1049A00023F0200384F8993D10BD2DE9F04797B21C
:1049B0001FFA83F88946154639464246044616F0E2
:1049C000C7FB061E41DB94F89C3DB3B3002642F2C0
:1049D000117A0136564523D000220F21204616F0C9
:1049E00028FB10F0100217D1142EF2D919212046FD
:1049F00016F01FFB00F47F00B0F5003FE9D0B0F5E2
:104A0000802FE6D02046FFF7B3FF94F8993D43F09E
:104A1000400384F8993D06E042F210739E420CD1A7
:104A20002046FFF7A5FF06F0B7F910B1838D0133DB
:104A300083854FF0FF30BDE8F08743464A4639464C
:104A4000204616F07FFA061E0BDA06F0A5F910B123
:104A5000836A013383622046FFF78AFF3046BDE850
:104A6000F08794F89C3D3BB1002384F89C3D2046A0
:104A700016F0A3FF02F098F92846BDE8F087002A57
:104A80002DE9734F4FF0000173F100040546904685
:104A900099460A9E80F8991D18DB7EB940F2851A66
:104AA0004FF0000BCDE900ABFFF73AFF30B906F04D
:104AB00073F930B3836A0133836222E04FEA18212D
:104AC00041EA0961284616F004FF012126B10123BD
:104AD00041F0040185F89C3D284616F0FFFE04468F
:104AE00058B106F059F910B1836A01338362284640
:104AF000FFF73EFF4FF0FF3405E026B102F028F942
:104B000001E06FF00104204602B0BDE8708FD0F8DC
:104B1000203E10B5002B0446D4BF04F5616000F6BA
:104B2000186028F063FF94F8993D9B0603D5B4F80C
:104B30009634012B06D006F02FF930B1836A013389
:104B4000836202E0B4F8980401E04FF0FF300023E4
:104B5000A4F8963494F8993D23F0200384F8993D05
:104B600010BD13B5002100910446FFF788FF28B956
:104B7000204602B0BDE81040FFF7C9BF02B010BD2B
:104B800011F0010110B5044606D0110A41EA036193
:104B900016F09FFE01212046BDE8104016F070BFC0
:104BA000F8B50C460699054616461F4639B14FF42E
:104BB0007A73594340F20243B1FBF3F189B216F024
:104BC00086FF14F0010106D0310A41EA0761284648
:104BD00016F07FFE01212846BDE8F84016F050BFD0
:104BE0000438C0B230289ABF024B33F810000020BE
:104BF000704700BF58FC0600F0B52DED028B023166
:104C000083B0044688B215461BF0A0FC41A3D3E94B
:104C1000002306460F461BF003FD41EC100B1BF072
:104C20003FF90022304B304639468DED000B1BF02A
:104C3000F7FC9DED000B06460F46002251EC100BD1
:104C40002A4B1BF0EDFC0B460246394630461BF062
:104C500031FB1BF095FF94F85B3D07EE900AB8EE30
:104C6000E70A33B9DFED227A9FED228A60EE278AC8
:104C700010E0012B06D1DFED207A9FED208A60EE57
:104C8000278A07E0DFED1E7A9FED1C8A022B60EE7B
:104C9000278A02D11B4AD65600E0082694F8560D02
:104CA000FFF79EFF94F8553D002808BF8020012B98
:104CB00006EB000307EE103A0CBF9FED130A9FEDC1
:104CC000130AB8EEC77A78EE887A27EE007A37EEC4
:104CD000870A1DB1DFED0E7A30EE270A03B0BDEC76
:104CE000028BF0BDAFF30080000020400000484080
:104CF00036480341D94E2C432C48833FDF4FAC410B
:104D00007B49033E10FF0600EA5B7E3FB341823FD2
:104D100000001042D318308D01D3983F00000000EE
:104D20002DE9F0432DED028B85B098460E9C231D96
:104D3000064691460093002208230D46122116F0E4
:104D400013F907221521304616F08EF900226080F3
:104D50001021304616F06DF9E188628823894943B5
:104D600002FB021203FB032300EE103A000DA081A8
:104D7000B8EEC00A00F066FEA3895B43B0EE408A3D
:104D800000EE103AB8EEC00A00F05CFE3C4B93ED2A
:104D9000027B38EE400AF2EE048A8DED027B60EE73
:104DA000287A17EE900A1BF0E3FBDDE902231BF0E3
:104DB0007FFAC8E9000160891BF0C8FB00224FF0B0
:104DC00082431BF02DFC1BF023FF00EE100A00F0C5
:104DD00039FEA3895B43B0EE408A00EE103AB8EE8C
:104DE000C00A00F02FFE38EE400A60EE287A17EE77
:104DF000900A1BF0BDFBDDE902231BF059FA0646C1
:104E00000F46C9E9006702460B46D8E900011BF0CE
:104E10004FFA19A3D3E90023804689463046394624
:104E20001BF070FE08B1002311E00022154B304644
:104E300039461BF03FFA02460B461BF03BFA1BF0CB
:104E4000C7FEC0B23F2801D8287001E03F232B7075
:104E50000D4B0022404649461BF068FE2B7810B1EE
:104E600043F0400301E063F07F032B7005B0BDEC1D
:104E7000028BBDE8F08300BF0000000000405AC074
:104E80006024070000405A40000024C000000000D9
:104E900038B506222DED028B1221044616F0E4F8F7
:104EA000022205461021204616F0DEF8C0F30B144E
:104EB00028461BF04BFB00224FF082431BF0B0FB57
:104EC0001BF0A6FE00EE100A00F0BCFD04FB04F38C
:104ED000B0EE408A00EE103AB8EEC00A00F0B2FD23
:104EE00038EE400AF2EE047A60EE277A17EE900A66
:104EF0001BF03EFB124BD3E902231BF0D9F9002231
:104F0000104B04460D461BF01BFE60B90AA3D3E903
:104F10000023204629461BF0F5FD38B920462946D6
:104F20001BF02EFE04E06FF0290001E06FF0680036
:104F3000BDEC028B38BD00BF0000000000405AC02D
:104F400060240700000045C0002200F6545116F00E
:104F5000BFB910B5044600F5566116F0E5F894F8AF
:104F60005D1D2046BDE8104016F0D6BAA0F86A1DB7
:104F700016F0C0B8F8B50D4600210746164616F0E3
:104F800091FF044668B1C1B2384617F021F8C4F366
:104F9000072186ED000A384616F0FEFF85ED000A6F
:104FA000F8BD002333602B60F8BD1FB504AB47226A
:104FB00003F8042D312100932822012315F0A0FFCE
:104FC00005B05DF804FB00002DE9F0472DED028BE4
:104FD000002288B0002304468846CDE90423CDE9A9
:104FE000062306F06BFE002800F0D380D4F8803D45
:104FF000002B00F0CE80B4F8843D002B00F0C98077
:10500000B4F9863D002B00F0C48004A92046FFF7C8
:105010005BFC28F0ADFAD4F8F03D82464FF000502A
:105020009847002303AA02A92046FFF7A3FF9DED9E
:10503000038A18EE100A1BF09BFA5BA3D3E9002346
:105040001BF07EFD08B9002665E004F55966D6ED33
:10505000007AF5EE407ADDED027AF1EE10FA04F610
:105060008C5708BFC7ED007A97ED007A08BF86ED30
:10507000008A77EEC77AB0EE007AF0EEE77AF4EEC7
:10508000C77AF1EE10FA12DCD6ED007A38EE678AB4
:10509000F0EEC87A17EE900A1BF06AFA44A3D3E93F
:1050A00000231BF04DFD10B9B8F1000FCBD0B4F8C0
:1050B000841D204616F0AEFF5FFA80F9B9F1000FAB
:1050C000C1D0DDED027AB4F9860DFDEEE77A04F683
:1050D0009458CDED007A1BF039FABDF90050CDE9B6
:1050E000000128461BF032FAD8ED002A9DED032A74
:1050F00041EC100B9DED001BD4F8801D94F8540D6D
:1051000017F02CF8029B84F8609DC4F8640D3B6096
:10511000039B33600126D4F8F03D4FF000409847E0
:1051200006A92046FFF7D0FB28F022FADDE9062386
:105130000746DDE90401121A63EB0103104603F090
:10514000FF011BF037FA1CA3D3E900231BF068FA18
:10515000CAEB0707804627F07F40013089461BF0E5
:10516000E5F902460B46404649461BF0A1F81BF004
:1051700007FD07467EB104F55661204615F0D4FFC1
:10518000A4F8885D05F008FE28B1C38B0133C38302
:1051900001E06FF00047384608B0BDEC028BBDE877
:1051A000F08700BFAFF300809A99999999990140CF
:1051B0009A9999999999B93F2A87AD890669F03EDC
:1051C00073B50379A1F896340679012E0C462AD1DD
:1051D00000256946204600958DF8045015F00BFF18
:1051E0009DF801109DF8003003EB01239DF802109B
:1051F00003EB01439DF8031003EB01639DF80410DA
:10520000E81804F5576241F10001C2E9000194F881
:105210009D3DA4F896644BB124F0BAFF84F89D5DDF
:10522000C4F8780D02E00523A1F8963494F8993D6E
:1052300043F0200384F8993D02B070BDF0B591F8B9
:10524000295D02794FF4886303FB051385B083F869
:10525000A128C288A3F8A2280379042B0C4600F0E9
:105260009C800B2B00F0A080022B91F8283D40F091
:1052700096801BB10021204616F002FC94F89D3D5B
:1052800033B124F085FF0023C4F87C0D84F89D3DE4
:10529000002702A9204602978DF80C7015F0B5FE84
:1052A0009DF809109DF8083003EB01239DF80A10C2
:1052B00003EB01439DF80B104FF4886603EB016389
:1052C0009DF80C1006FB0542F81841F1000102F6AA
:1052D000A80ECEE90001B2F8A218A2F8A418B4F8FA
:1052E0002C3D1BB1994288BFA2F8A2386E43A21987
:1052F00006F594610023B2F8A2282144204615F057
:1053000053FE94F89B3D012B12D106F50D6306F672
:10531000C80206F6D80106F50B662644234400961B
:10532000224421442046FFF7FBFC002384F89B3DE8
:1053300094F89E3D012B4FF4886607D12046FFF775
:10534000A7FD06FB054686F8D90804E006FB0546DE
:10535000002386F8D9384FF4886303FB054393F89C
:10536000A024C52AB3F8A22808D10C2A01D11F22F3
:1053700010E00E3A202A0CD820220BE0052A08D192
:1053800094F8272D93F8A21491420CBF1E221D22DF
:1053900000E0022283F8A12806E091F8283D1BB125
:1053A0000021204616F06CFB94F8292D012303FA06
:1053B00002F294F8993D134384F8993D002384F850
:1053C0009E3D05B0F0BD38B590F89F5D04461DBB0D
:1053D000012380F89F3DD0F8040E26F0FBFCD4F8A2
:1053E000043E4FF0A04203F5E073022142F823107F
:1053F00020462A464FF0FF3116F0A0FB204605223A
:105400004FF40C6115F01EFFD4F8003E984720467B
:10541000BDE8384015F014BF38BD10B41C46134623
:1054200022465DF8044B15F0BFBD0000D0F8FC3DEE
:1054300010B504469847204615F012FE244B9842BA
:1054400040D1204616F0D0FC0021204617F083F80A
:1054500040F60801204616F0A5F9B0BB204615F02D
:10546000FFFDC4F84C0D204615F044FDC4F8480D6E
:10547000204615F042FD0122C4F8500D1549204682
:1054800016F05CFB06F09EFC18B10121204616F0D8
:1054900092F82046FFF789FD2046D4F8E82DD4F88D
:1054A000EC1D16F083F80020802384F8993D84F8E1
:1054B000A10841F2883384F8E10C84F89A0DA4F82D
:1054C000243D10BD4FF0FF3010BD6FF0010010BD46
:1054D0003001CADE80D023341FB54FF0805304461C
:1054E000196E586E00220A430346CDE900239DE859
:1054F000030002AB83E80300D4F8482D9DF80A109E
:105500008DF80820100A01F0F001C2F303420A43AB
:105510008DF80A20CA228DF80E20DE228DF80900AF
:105520008DF80F2003CBC4F8360DC4F83A1DD4F81B
:10553000361D204689B215F03CFE4FF0FF33A4F82B
:105540003E3DA4F8403DA4F8423DA4F8443D04B0DB
:1055500010BD0346D0F8360DD3F83A1D704730B56C
:1055600090F8993D9A0606D523F0200380F8993DDE
:1055700090F8960430BD032103EA0104F4B1013927
:105580001CD090F82A2D013202F0010243FA02F5F4
:10559000ED0780F82A2DF1D50121914023EA01037E
:1055A00080F8993D4FF488635A4302F594630344AD
:1055B0000244C0F8203D92F8A10830BD1A0643BF4E
:1055C00003F07F0380F8993D8020002030BD00006B
:1055D0000028024818BF0020704700BF484C002038
:1055E000F0B5044687B016F000FFD4F8F03D4FF058
:1055F000005098472046FFF719FF051E1DDA28F0D6
:10560000D9F94FF47A74A0FB046704FB0177642294
:105610000023304639461BF0A9FC214B0393214B54
:10562000029340F2474301931F4BB0FBF4F1009308
:1056300004951E4B04FB110228E0D4F8F03D4FF016
:1056400000409847D4F84C2D194B9A4224D028F0AA
:10565000B1F94FF47A75A0FB056705FB0177642269
:105660000023304639461BF081FCD4F84C3D0493AE
:105670000B4B03930B4B02934FF48A6301930A4B3A
:1056800000930A4BB0FBF5F105FB110209481CF031
:105690008DFD4FF0FF3000E0002007B0F0BD00BFEF
:1056A000EDFC0600F3FC0600BAFC0600C6FC060092
:1056B0003001CADECAFC06002DE9F04F90F8553DD6
:1056C000012B95B0044604D0022B0CBF40270027C5
:1056D00000E0102794F8560DFFF782FA94F8573D32
:1056E000032B9CBF884A12F8038094F85B3D88BF67
:1056F0004FF00008022B9CBF844A32F8139094F8B4
:105700005C3D824688BF4FF000092BB1804A814E34
:10571000032B18BF164600E07F4E28F04BF94FF4DC
:105720007A75A0FB05BC05FB01CC61466422002311
:1057300058461BF01BFC94F85D3D0B93B4F85E3D9E
:105740000A9394F85A3D079394F8593D069394F8B8
:10575000583D059394F8543D0193704BB0FBF5F11F
:10576000099605FB1102CDF80CA002970093CDF825
:1057700020906B4BCDF810806A481CF017FD28F084
:1057800019F9A0FB056705FB01773046394664220D
:1057900000231BF0EBFBB0FBF5F605FB1607D4F876
:1057A000645D94F860AD4FEA557BBBF1070F4FEA9B
:1057B000156018D000F01F001AF0B8FE00225A4BF6
:1057C0001AF02EFF80460BEB4B00C0F11200894609
:1057D0001AF0ACFE02460B46404649461AF06AFDF6
:1057E000CDE90E0103E09FED467B8DED0E7BC5F309
:1057F000425BBBF1070F4FEA154018D000F01F00C5
:105800001AF094FE0022484B1AF00AFF80460BEB78
:105810004B00C0F1120089461AF088FE02460B4682
:10582000404649461AF046FDCDE9100103E09FEDE0
:10583000347B8DED107BC5F3423BBBF1070F4FEA84
:10584000152018D000F01F001AF070FE0022364B11
:105850001AF0E6FE80460BEB4B00C0F112008946C1
:105860001AF064FE02460B46404649461AF022FDF5
:105870008046894603E04FF000084FF00009C5F369
:10588000421BBBF1070F16D005F01F001AF04EFEA9
:105890000022254B1AF0C4FECDE912010BEB4B00A0
:1058A000C0F112001AF042FE02460B46DDE9120179
:1058B0001AF000FD01E0002000219DED107BB4F9FD
:1058C000863D0D938DED067B9DED0E7BB4F8843DFA
:1058D0000C93124B0093CDE90A01CDE908898DEDB7
:1058E000047B0295CDF804A00D4B10483A46314692
:1058F0001CF05CFC15B0BDE8F08F00BFAFF300807A
:10590000000000000000000006FF06000AFF06007D
:10591000FFFC0600FBFC0600F7FC0600F3FC06009B
:1059200002FD060006FD06000000E03F67FD0600E0
:105930002DE9F043384C394E87B0002847D0204637
:10594000FFF7BAFE28F036F84FF47A75A0FB058908
:1059500005FB019964220023404649461BF006FBE3
:10596000804606F013FAB8FBF5F1B4F8683D0593EC
:10597000B4F86A3D0493002794F88B3D039305FB2C
:105980001182274B02908DE8C00026481CF00EFCC7
:1059900028F010F8A0FB058905FB0199642200237B
:1059A000404649461BF0E2FAD4F8503D0493D4F83F
:1059B000483D0393D4F84C3DB0FBF5F1029305FB51
:1059C00011028DE8C000164B17481CF0EFFB27F0C2
:1059D000F1FF4FF47A75A0FB058905FB019964225C
:1059E0000023404649461BF0C1FAD4F83A3D0393E0
:1059F000B4F8343DD4F8362D02930023B0FBF5F112
:105A00000492019305FB11020096054B07481CF018
:105A1000CDFB07B0BDE8F083484C0020F3FC060046
:105A200002FD0600CCFD06000DFE060045FE060048
:105A300001231A46834202DC5A430133FAE7104637
:105A400070470000B8EE407ADFED057A9FED050A59
:105A5000A7EE270ADFED047A20EE270A704700BF81
:105A600000000034A9E2FDC29B209A3E2DE9F843D4
:105A700004460D46D1E90023D0E900011AF018FCD4
:105A8000D5E9022380468946D4E902011AF010FCC8
:105A9000D5E9042306460F46D4E904011AF008FCB0
:105AA000424604460D464B46404649461AF0B8FD6C
:105AB0003246804689463B46304639461AF0B0FDAC
:105AC00002460B46404649461AF0F4FB224606467B
:105AD0000F462B46204629461AF0A2FD02460B46E9
:105AE000304639461AF0E6FB1BF092F80F4B07EEF2
:105AF000100AA3EB5003F6EE007A06EE903A67EE3A
:105B0000277AB7EE087A66EEE77AA7EEA67A67EE0E
:105B1000267AB7EE007AC7EE276A16EE900A1AF0D8
:105B200027FD41EC100BBDE8F88300BFDF59375F5C
:105B300010B50446406801F033FD074B20609C42DD
:105B400006D1064827F068FF0449054827F06CFF96
:105B50000123237210BD00BFF03800207C5A0020C2
:105B6000745A00202DE9F84F05464FF4B6700E46E2
:105B70001BF028FF2B88102B044600F0BB8005D8B3
:105B8000012B16D0022B00F0B580B8E0402B00F0BE
:105B90009680802B00F09D80202B40F0B0802979EA
:105BA00003708B1D5B0002460381002302F80C3F4B
:105BB00093E003704FF4B67303812B7A0E2B88BFEA
:105BC0000E2380F8203090F82080B8F1000F0ED11D
:105BD00005F0B6FF00284FD094F8200084F8880024
:105BE00004F18C03002114279FED5A7A20E000F184
:105BF0003C0900F1200B00F1770A00274745E7DA5E
:105C00006B6903EBC701D1E90001534B00221AF085
:105C100007FD1AF0DDFF2B6949F8040F53F8373000
:105C20002BF8023FAB69DB5D0AF8013F0137E5E77E
:105C3000814203F1100321DAEA6807FB0122D2ED69
:105C4000007A67EE877A0131FDEEE77A43ED047A58
:105C5000D2ED017A67EE877AFDEEE77A43ED037ABB
:105C6000D2ED027A67EE877AFDEEE77A43ED027AAB
:105C7000127C03F8042CDBE784F888006B68002BA7
:105C80003CD093ED007ADFED336A27EE267ABDEE45
:105C9000C77A84ED047A93ED017A27EE267ABDEE79
:105CA000C77A84ED057AD3ED027A67EEA67AFDEE27
:105CB000E77AC4ED067A1B7C237701231EE02A7A5B
:105CC000037002F10C03038169680C301CF06CF95D
:105CD00015E003700C23038111E08B4208DAA868F9
:105CE000C05C02F8010FE868C05610740133F4E795
:105CF000217304E023700D2323812B792373174D27
:105D000066602B782BB91649164827F05BFE0123F5
:105D10002B70144D2146286827F062FEC0B9286810
:105D200027F05AFE064618B130461BF053FEF6E740
:105D30002146286827F052FE4FF4B6701BF042FE51
:105D40000670068101462868BDE8F84F27F046BE78
:105D5000BDE8F88F00007A4400408F40715A00205F
:105D6000905A0020C85A002010B5044605F0F8FEED
:105D700048B1237A13B92046FFF7DAFE2068BDE860
:105D8000104001F095BB10BD08B527F0F1FB08BD30
:105D900013B5059C0194BDF810400094FEF7C2FBBA
:105DA00020B1421C00D001E06FF0020002B010BD33
:105DB00008B5FEF7F9FB002818BF6FF0020008BD18
:105DC00070B50C460546164626F07AFD14B33346E8
:105DD0002246294626F026FDB0F5024F11D005D8FF
:105DE000D0B1112813D16FF0030070BD48F2012328
:105DF000984209D048F20223984208D16FF00A0075
:105E000070BD6FF0050070BD6FF0090070BD6FF0E0
:105E1000010070BD4FF0FF3070BDF7B50C46054670
:105E200016461F4626F04CFD04B300973346224623
:105E3000294626F09FFC11280FD003D8C0B11028A6
:105E400014D010E048F20123984209D048F202230E
:105E5000984208D16FF00A000AE06FF0030007E0F3
:105E60006FF0090004E06FF0010001E04FF0FF3037
:105E700003B0F0BD00B589B000B342799DF80030A1
:105E800062F38613827962F3C713427862F3820366
:105E9000027862F30103827862F3C303C27862F38B
:105EA0000413027962F3451308AA01A802F8203D01
:105EB000039216F0E4FF18B1404201E04FF0FF30CA
:105EC00009B05DF804FB00B589B050B3C3799DF803
:105ED0000120417963F382029DF8003061F386135B
:105EE000817961F3C713017A61F301028DF8012012
:105EF000427862F38203027862F30103827862F3EC
:105F0000C303C27862F30413027962F3451308AA4B
:105F100001A802F8203D039217F02FF818B1404273
:105F200001E04FF0FF3009B05DF804FB10B5044606
:105F300088B068B301A8CDF80CD016F04CFF50BB68
:105F40009DF80130C3F34012E272C3F3C0026272E3
:105F5000C3F30012A272C3F38002C3F301032372DE
:105F60009DF80030E271C3F380126271DA09A27108
:105F7000C3F340122271C3F380026270C3F30102C3
:105F80002270C3F3C002C3F30013A270E37004E0F5
:105F90004FF0FF3001E06FF0010008B010BD00B518
:105FA0008BB00AAB03F8210D03A8059317F070F826
:105FB00000B140420BB05DF804FB00B589B070B190
:105FC0000390002308A88DF80830012300F81C3D39
:105FD00016F01CFC002818BF6FF0010001E04FF024
:105FE000FF3009B05DF804FB10B504468CB078B101
:105FF00001AB05A8079316F0D3FB60B9019B2360A2
:10600000029B6360039BA3609DF81030237304E040
:106010004FF0FF3001E06FF001000CB010BD00B593
:1060200089B0ADF8000001A8ADF80210CDF80CD091
:1060300016F0B4FA00B1404209B05DF804FB30B587
:106040000C4689B0054668B161B101A8CDF80CD005
:1060500016F086FA48B9BDF800302B80BDF8023042
:10606000238004E04FF0FF3001E06FF0010009B041
:1060700030BD10B50C4688B080B10B78102B08D815
:10608000039001A817F08CF958B99DF809302370D6
:1060900009E010230B706FF0050004E04FF0FF30B3
:1060A00001E06FF0010008B010BD37B50D460446A1
:1060B00068B161B10DF1070005F0BCF89DF807204B
:1060C0002A70014620461BF06FFF002001E04FF0D0
:1060D000FF3003B030BDFA2908B50AD848B105F041
:1060E000ADF810B16FF0010008BD05F03FFA10B136
:1060F000F8E74FF0FF3008BD10B5054C23780A468D
:1061000023B904490DF0A6FA0123237010BD00BF86
:10611000705A0020655B040070B5064668B3184CE1
:1061200023782BB91749184827F04CFC012323701A
:1061300005F016FD40B1154C237A13B92046FFF740
:10614000F7FC206801F0C7F90F4B186827F042FCF4
:1061500005460E48FFF708FE2B783BB14FF4B672A8
:10616000294630461BF020FF002401E06FF00504B3
:1061700028461BF02FFC204670BD4FF0FF3070BD4D
:10618000715A0020905A0020C85A0020E43800209C
:1061900002F06AB803F040B904F08CB808484FF632
:1061A000FF7100F6F87203888B4207D083782BB119
:1061B00003331844C31C9342F5D90020704700BF35
:1061C000D85A002073B5144E33680BB3134C2368B0
:1061D000F3B1134D6B682846013340F8043F40F695
:1061E000FC7101AA14F0F8FD019B20682B604FF4AC
:1061F000805100F031FB68B94FF480522946206885
:1062000000F034FB30B9336822683260236001E06B
:106210004FF0FF3002B070BDD06A0020CC5A002091
:10622000D05A00202DE9F347314DDFF8D080DFF858
:10623000D090DFF8D0A04FF400344FF0FF370026A5
:1062400055F8043C013B03330BD94FF48052FF2136
:106250002848C8F80040C9F800401BF03FFFFFF78E
:10626000B1FF55F8043C534532D16368012B2FD15F
:106270006368B34224BFC8F800401E46BB429CBFBF
:10628000C9F800401F461C4B05F580559D4204F59A
:106290008054D5D1194B1C6834B316482368036069
:1062A0006368436040F6F87204F1080108301BF09F
:1062B0007BFE134B1A6842B9B4F5003F14BF4FF48C
:1062C00000324FF404321A600EE094420CD1F3E72E
:1062D00001AA40F6FC71284614F07EFD55F8042C06
:1062E000019B9A42CFD1C3E702B0BDE8F08700BF5F
:1062F00004000200D05A002004200200D06A0020CE
:10630000CC5A0020820418A50F4B186820F4805343
:10631000B3F5003F10B513D10C4C236823F4805320
:10632000B3F5003F0CD14FF4805100F095FA4FF4D3
:106330008051206800F090FAFFF774FF002010BD34
:106340004FF0FF3010BD00BFD06A0020CC5A0020B3
:106350000A4B30B54FF6FF7503F6F8741988A94259
:1063600008D09A7832B1814206D003321344DA1C45
:10637000A242F3D9002030BD184630BDD85A0020C3
:106380004FF6FF7398422DE9F04781460F4690463D
:1063900003D14FF0FF30BDE8F087FFF7D9FF064685
:1063A00018B9FFF7FBFE68BBF3E784781FB1BC4266
:1063B00024D0012500E03D46FFF7F0FE04F1030A7A
:1063C000184B06EB0A01002808BF1846CB1C984260
:1063D00001D9884203D1821BFF21304607E0441ACD
:1063E000224630461BF0E0FD5246FF2130191BF0DB
:1063F00075FE002DD5D12846BDE8F08722464146DE
:1064000003300AE0FB1C074A03449342C1D8A0F8BA
:10641000009087703A46414603301BF0C5FD0020CE
:10642000BDE8F087D06A0020442200211BF056BE50
:106430002DE9F0410E46044617461D46DDF818804A
:10644000FFF7F2FF736AB06A636006EB870320F020
:1064500001005B692361022F08BF40F00100A060CA
:106460002783384623F080FF238BE062023356F8FF
:106470002330E3602DB128440022E561E0626563CA
:106480002263B8F1000F01D0434502D22362BDE878
:10649000F081C4F82080BDE8F081038813F0010387
:1064A00006D0036CC06883422CBF002001207047D7
:1064B0001846704710B50446806B08B11BF08AFA85
:1064C0002046BDE81040FFF7AFBFF8B504460F46C1
:1064D00015461E46FFF7EEFF4FF480501BF072FA90
:1064E000A063A8B1A56005F00105069B2361002DFE
:1064F00014BF4FF488234FF40833636114BF0223A1
:106500000123238301236760E66023800020F8BD18
:106510004FF0FF30F8BDC06BB0F5805F94BFC0F5A1
:1065200080504FF0FF30704770B51646C2698A42FE
:10653000054621D3C818824221D28A4216BF511A79
:106540001C465C1AEB6804EB020008BF002198426D
:1065500088BF9C1AEB6B1A19B2F5805F11D8A86B33
:106560002246184431441BF01FFDEB6B2344EB63C0
:10657000EB691C44EC6102E06FF0010070BD00208B
:1065800070BD4FF0FF3070BD2DE9F041044600268C
:10659000E26BB2F5805F354628D3236CE26803F5E1
:1065A0008051914200F28280A16B60694FF4805269
:1065B0003144184400F05AF900287BDB256CA16BAC
:1065C00060694FF48052314428441BF0BBFC18B181
:1065D0006FF00700BDE8F081E36B05F58055A3F58A
:1065E000805306F58056E3632564D1E722B11EB1DE
:1065F000A06B81191BF0D8FCE16B236CE2680B44A3
:1066000093425BD800295DD093425BD1E36BB3F535
:10661000805FC6EB050824D3236CE26803F5805144
:10662000914252D8A16B60694FF4805241441844A2
:1066300000F01CF900284CDB276CA16B60694FF45B
:106640008052414438441BF07DFC0028C0D1E36BEC
:1066500007F58057A3F58053E363276405F580555C
:10666000D4E7002B39D0A06BC3F58052FF2118442A
:106670001BF034FD6069236CA16B4FF48052184409
:1066800000F0F4F800282BDB266C6069A16B4FF456
:10669000805230441BF056FC002899D1E36BE06334
:1066A0001E44266405F58050BDE8F0814FF0FF30B0
:1066B000BDE8F0816FF00100BDE8F0816FF00200ED
:1066C000BDE8F0813046BDE8F0816FF00300BDE821
:1066D000F0816FF00400BDE8F0812846BDE8F0814C
:1066E0006FF00600BDE8F081C369C268934210B53F
:1066F000044612D30ED1026C93420ED1C36B63B920
:10670000008B00F0B6F8236998420CBF01206FF0AF
:10671000010010BD4FF0FF3010BD002010BD4FF044
:10672000A043D3F8042520EA02011040C3F808155D
:10673000C3F80C0570472FDF704730DF70473FDF2D
:10674000704740DF70473EDF704743DF704749DFE7
:10675000704770474FF0A0434FF00042C3F80C253C
:1067600070474FF0A0434FF00042C3F80825704730
:106770004FF00040FFF7D3BF4FF0A0434FF480022B
:10678000C3F80C2570474FF0A0434FF48002C3F8C4
:10679000082570474FF48000FFF7C1BF4FF0A043BA
:1067A0004FF08042C3F80C2570474FF0A0434FF0E4
:1067B0008042C3F8082570474FF08040FFF7AFBF15
:1067C0007047000008B5FDF7F5FF23F0E7FCFFF781
:1067D0009BFDBFF34F8F0549054BCA6802F4E06289
:1067E0001343CB60BFF34F8F00BFFDE700ED00E028
:1067F0000400FA051B2810B5044607D8134BC34004
:10680000DB0701D5012010BD162807D0A4F11E0317
:10681000012B03D9022C06D0002010BD05F0D2FABE
:106820000028F7D1EEE705F09BF90028EAD005F043
:1068300037FA0028E6D005F0D1F90028E2D105F0BA
:10684000DBF9003018BF012010BD00BF00F7800841
:1068500008B504F08DFA08BD0139090B013120F4A7
:106860007F6089B220F00F0014F00EB9920814F086
:1068700043B913B500230193044628B923F080FDE2
:1068800001AA0146204610E0012806D123F078FD38
:1068900001AA01464FF4083007E0022807D123F08F
:1068A0006FFD01AA01464FF4882014F095FA019873
:1068B00002B010BD024BC31A58425841704700BF86
:1068C0002A00CADE08B504F053FA10B1FFF737FF0B
:1068D00001E023F059FBBDE8084026F03DBE08B5B5
:1068E00026F040FE04F044FA18B1BDE80840FFF776
:1068F00028BFBDE8084023F05DBB00000149024805
:1069000023F00ABE80969800C167040024F0F0BF0F
:1069100000B52DED028B83B004F02AFA18B101A85E
:10692000FFF715FF1CE0184B1860A3F20453012277
:106930001A601A46D2F80011144B0029FAD000222E
:10694000C3F80021D3F80825D3F80835920544BFD1
:106950006FEA83536FEA935301930C4B01225A6001
:106960009DED018ABAEECF8A04F016FA20B1FDEE51
:10697000C87A17EE903A0373B0EE480A03B0BDEC44
:10698000028B5DF804FB00BF04C5004000C000405E
:10699000F7B504F0EDF92F4C2F4A304B98B1FFF7C3
:1069A000D2FE0025156012680092009A2C4AD2F897
:1069B00004151A6897071FD52A480668B6B12A4FEA
:1069C00005603E6012E040BF20BF20BF106012682B
:1069D0000192019A224AD2F804151A6896070BD53B
:1069E000204D2E6816B1204F28603E6022F0020232
:1069F0001A604FF0FF322260206801F24712451CF6
:106A000022F07F421FD0411A21F07F41174DA1F1A2
:106A1000A406AE420ED91349086818B1124D286079
:106A200000200860196841F0080119604FF0FF3339
:106A3000236008E040F28E24A1429FBF1A6842F012
:106A400002021A60024601230021094826F0DEFCFA
:106A500003B0F0BD4847002040410240749500203B
:106A60000040024070950020789500205CFF3B00BC
:106A7000AC47002038B526F09DFF0A23A0FB034554
:106A800003FB01554FF47A720023204629461AF081
:106A90006DFA38BD30B58FB00EAC002324F82A3D16
:106AA0000493144B0193144B0093144A144B15494F
:106AB0001548164D1BF07AFB214604A826F0D0FE9F
:106AC000A8B105AABDF80E10049826F009FF70B110
:106AD0000D9B089A01930C9B0093BDF81810099B1D
:106AE0000B48002A08BF2A461BF060FBE4E70FB002
:106AF00030BD00BF48FF06004DFF06002BFF06001B
:106B000026FF0600FF07070030FF060021FF0600F2
:106B100053FF0600D0B58EB004A81BF03DFB26F055
:106B200049FF4FF47A74A0FB046704FB01776422E9
:106B30000023304639461AF019FA049B02930B9B46
:106B400001930C9BB0FBF4F1009304FB1102034B87
:106B500003481BF02BFB0EB0D0BD00BF02FD0600AA
:106B60006AFF06002DE9F04F89B026F023FF642369
:106B70004FF47A75B0FBF3F203FB12066E43B6FBDB
:106B8000F3F63C23B2FBF3F803FB182841F27072D2
:106B9000B0FBF2F2B2FBF3F903FB19291822044609
:106BA000194B1A4FB0FBF3F3B0FBF7F7B3FBF2FA54
:106BB00002FB1A3A26F0FEFEA0FB05BC05FB01CC49
:106BC00061466422002358461AF0D0F9104A114B4E
:106BD000B0FBF5F14FF00A0E012F08BF13460EFB74
:106BE00004F4059305FB1102069404970396CDF86F
:106BF0000880CDF80490CDF800A0074B07481BF0A3
:106C0000D5FA09B0BDE8F08F407E050000D68300BC
:106C10008D1C07005A01070002FD060097FF0600C1
:106C20002DE9F04F87B000285CD004F0B1FA04F0F1
:106C300091FD04F0ADFA04F087FE4FF080434FF46D
:106C40007A74D3F80C54D3F80C24D3F81865D3F81D
:106C5000187402F0011826F0ADFEA0FB04BC04FB82
:106C600001CC64220023614658461AF07FF9B0FB3C
:106C7000F4F904FB1904FFF74BFE10EE100A19F0AB
:106C800077FC05F00105294BDFF8C0E0284ADFF862
:106C9000A8C045F4803A06F00306C7F30047002D6C
:106CA0000CBF1D467546D04508BF62462EB1214B2C
:106CB000012E0CBF76461E4600E01E46DFF870E04F
:106CC0001D4B0392002F14BF1F467746CDE90001EC
:106CD000059704960295194B1948224649461BF020
:106CE00065FA20E004F054FA054626F063FE4FF4FE
:106CF0007A74A0FB046704FB01776422002330460A
:106D000039461AF033F92B6A0393AB6A02932B7856
:106D100001930C4BB0FBF4F1009304FB1102074B01
:106D200009481BF043FA07B0BDE8F08FD4FF060016
:106D3000CB0A0700DFFF0600DCFF060002FD0600AD
:106D4000E5FF0600500007001C000700D7FF060003
:106D500070B504F00DF8E8B1EFF3108572B60E4A85
:106D60000E489468012394B993600D4B0D49D3F8F4
:106D70008060314011600B49C3F88010D3F8841053
:106D800051604FF0FF32C3F88420047000E00370BC
:106D900005B962B670BD00BF80A40020D56A00208E
:106DA00000E100E0FC06FFBC10B503F0E1FF80B19C
:106DB000084B9A686AB1084A117851B9EFF310820A
:106DC00072B606481C6804605C684460996002B949
:106DD00062B610BD80A40020D56A002000E100E06A
:106DE0004FF0A04303224FF48001C3F85827C3F8A3
:106DF00008154FF08041C3F87827C3F80815C3F889
:106E00007C274FF00042C3F80825104B104A1A6047
:106E1000104B114A1A60114B114A1A60114B124A59
:106E20001A60124B124A1A60124B134A1A60134B23
:106E3000134A14491A60144B0B6014491448086033
:106E400014490A60144A1360704700BF08390020D3
:106E50005567040014390020636704000C390020D2
:106E6000716704001C39002079670400183900207C
:106E7000876704001039002095670400243900203A
:106E80009D67040020390020AB670400FC38002017
:106E9000B96704000039002004390020104A114B62
:106EA0001360114A1360114A1360114A1360114AAA
:106EB0001360114A1360114A1360114A1360114A9A
:106EC0001360114A1360114A13604FF0A04302226D
:106ED000C3F85827C3F87827C3F87C27704700BF4A
:106EE0000839002053670400143900200C390020B1
:106EF0001C390020183900201039002024390020C6
:106F000020390020FC3800200039002004390020FE
:106F1000F7B5002307460E46CCB28DF8073003F0D4
:106F200027FF08B1002524E0224D2B789A07F9D4D9
:106F300000F0C0F918B92B7843F002032B702B78BE
:106F40009B07EFD44FF0FF3031E003F011FF98B111
:106F50000DF10700FFF7EFFB9DF80730A34228BFB4
:106F600023468DF8073063B9C4EB4410800022F04B
:106F700087FF002CE9D119E00DF1070000F0E6F9D8
:106F8000EAE703F0F5FE9DF807107B1918B11846E3
:106F9000FFF7D3FB02E0184600F0E2F99DF8073056
:106FA000E41A1D4414F0FF04EDB2DDD1304603B005
:106FB000F0BD00BFD46A002070B5044628B3102984
:106FC00023D1134A034600F1100153F8040B42F891
:106FD000040B8B42F9D103F0CBFE0E4D28B12B7878
:106FE00043F001032B70002070BD2B78DB0703D426
:106FF00023F0C0FA064600E00126204623F012FBEB
:10700000002EECD16FF0010070BD4FF0FF3070BD6D
:10701000D66A0020D46A00202DE9F04F9846444BF0
:107020001B788BB0DB0704460F4601927AD503F03C
:107030009FFE064608B906AD00E03E4D0DF1080E74
:10704000234604F11009744618685968F446ACE800
:10705000030008334B45E646F6D14FF0000B0DF127
:10706000180905F1100A149B9B4508EB0B0E31DA49
:10707000002054F820105EF820304B4044F82030B7
:1070800001300428F5D1E6B12B4AA446634603CB70
:107090004B45106051609C4602F10802F6D127482A
:1070A000FFF753FB98B92B46A44618685968E64683
:1070B000AEE8030008335345F446F6D10BF1100B4C
:1070C000D1E72146284623F071FA0028EBD16FF072
:1070D000020029E0002354F8230057F82310414010
:1070E00044F823100133042BF5D1A6B1124A06AFA0
:1070F000234603CBBB42106051601C4602F10802DC
:10710000F6D10E48FFF721FB0028E0D1019A2B8829
:107110001380002008E02146284623F047FA002883
:10712000F4D1D4E74FF0FF300BB0BDE8F08F00BFD3
:10713000D46A0020F66A0020E66A0020D66A0020A1
:107140002DE9F0471F462C4B1B78DB0788B006461D
:107150008A4614464BD503F00BFE054610B90DF1D7
:10716000100901E0DFF89C90A046C4EB08039F42A1
:107170003BDD514695B1214B0AF1100251F8040B49
:1071800043F8040B9142F9D11D48FFF7DEFA50B9DC
:10719000A6B94346EE4608F1100C07E0484623F036
:1071A00005FA0028F4D16FF0020022E0186859684F
:1071B000724603C2083363459646F7D1A8F104032B
:1071C000A9F1040108F10C0053F804EF51F8042F61
:1071D00098428EEA02021A60F6D10EB1414600E0F2
:1071E000694608F110088A46BFE7002001E04FF029
:1071F000FF3008B0BDE8F087D46A0020E66A0020BE
:10720000D66A0020F66A002008B523F0E3FA08BD2C
:10721000F8B50E4615460C46A31B9D420BDD2378A0
:107220000A2B274602D10D2023F0BCFA387801340E
:1072300023F0B8FAF0E72846F8BD0000074B1A68BB
:107240000AB9074A1A601B68064A184490429DBF53
:10725000024A106018464FF0FF307047086B00205C
:1072600098A400200000012010B504460E2026F04E
:107270009BFB204622F0E8FD032010BD0A4AD1689E
:10728000136912895B1A9A4282B00AD3074B002213
:107290001A601B680193019B054B0122C3F804236C
:1072A0001A6002B0704700BF2C6B002000D1004074
:1072B00000D000407FB51E4C23780546002B32D10C
:1072C000082204F11401201D24F0D6FB194B0646B8
:1072D000002D08BF1D4638BB2B7833B1164AD2F8B3
:1072E000043543F00103C2F80435144B0293144DE6
:1072F000144B00930022144B0195A0210E2026F080
:107300003BFB286826F04AFB0E2026F04FFB0A4A7A
:10731000D2F8003223F00103C2F80032FFF7AEFFCB
:107320000123237000E00826304604B070BD00BF82
:107330002C6B00205400070000D000400C6B002094
:10734000286B0020F173040069720400034AD168BD
:1073500013695B1A03700020704700BF2C6B00207C
:107360000C4A70B50D46D16813695B1A9D420646FA
:107370000ED800242046AC4202D3FFF77FFF70BD39
:107380000028FAD13119044824F09EFB0134F2E7B9
:10739000042070BD2C6B0020306B0020114B1A684C
:1073A00013B5EAB1104AD2F80813C90718D500215D
:1073B00019601B6801930D4C019BD2F80815201D24
:1073C000C9B224F069FBE26823699B1A22899342BF
:1073D00001D8042804D1044A0123C2F808335360B9
:1073E00002B010BD00D1004000D000402C6B002046
:1073F00008B5FFF7D3FF0E20BDE8084026F0D6BA47
:1074000010B50E4C2068B8B10D4826F009FB236872
:10741000002003F1C80293F8201019B193F821401D
:1074200034B1013028339342F5D1041C18BF012434
:10743000034826F0F7FA204610BD00BF486B002035
:107440004C6B002038B5124826F0EAFA22F0A0FE74
:10745000104B1B684FF0FF3103F1C805002493F86F
:1074600020206AB193F821206AB1DA69B2F1FF3FB6
:1074700006D0121A22F07F428A423CBF11461C46B7
:107480002833AB42EBD1024826F0CCFA204638BD77
:107490004C6B0020486B0020014826F0ABBA00BFBF
:1074A000606B0020014826F0A1BA00BF606B00208D
:1074B00038B5044670B100F10805284626F0B0FA48
:1074C000002384F82130284626F0ACFABDE8384085
:1074D000FFF7E2BF38BD38B5044688B100F10805B2
:1074E000284626F09DFA012384F821304FF0FF331F
:1074F000E361284626F096FABDE83840FFF7CCBF96
:1075000038BD000070B500F10806044630460D464F
:1075100026F086FA26F046F91D4B1D601D4B1C60B7
:1075200026F048F922F034FE85429BBF05F1FF1397
:1075300003F57F43281A181A6FF4A3731844164BE7
:1075400098429FBF0123E56184F82130002588BF60
:107550004FF0FF35304626F065FA45B9FFF79CFF3E
:10756000204626F043FA22F0F7FD054601E04FF0F1
:10757000FF35304626F054FA4FF0FF33E361002325
:10758000304684F8213026F04DFA284670BD00BF01
:107590004847002070950020B9073D0026F02ABA20
:1075A00070B5164C0646206838B3154826F038FAF0
:1075B000246804F1C80394F8205025B128349C4273
:1075C000F9D1002415E02946282220461AF086FD2C
:1075D000012384F820304FF0FF3304F10800666285
:1075E00084F82150E36126F017FA2946204626F058
:1075F000F9F9034826F016FA204670BD486B0020C2
:107600004C6B002038B5134D2B6804460BB3124861
:1076100026F006FA2A680023D11891F8201081B1CB
:107620007BB984F8213084F8203063624FF0FF3357
:1076300004F10800E36126F0F1F9204626F0D4F9C0
:1076400002E02833C82BE7D10348BDE8384026F0D4
:10765000E9B938BD486B00204C6B002070B5114E65
:107660003568CDB9C8201AF0ADF904463060A8B12C
:10767000C82229461AF032FD204604F1C8034FF013
:10768000FF32C26128309842FBD1074826F0C4F986
:107690000021064826F0A6F9002070BD4FF0FF300B
:1076A00070BD00BF486B00204C6B0020606B002059
:1076B000F0B5174D2B6885B043B322F069FD154B2B
:1076C0000193154B02900093144A154B1549164827
:1076D000164E1AF06BFD00242827296807FB0411B9
:1076E0004A6A91F8210091F82030C969B1F1FF3F51
:1076F00008BF00218DE80300002A08BF324621465A
:107700000B4801341AF052FD052CE6D105B0F0BD4E
:10771000486B0020790007007D0007002BFF060062
:1077200056000700FF0707005A00070023FF060066
:1077300081000700024B186808B126F071B8704745
:10774000107000201FB5094B0393094B02934FF4AF
:1077500080630193074B00930022074B07490A20DF
:1077600026F036F805B05DF804FB00BF686F002016
:1077700010700020686B00209A000700F1DB050004
:10778000014B1868704700BF14700020024A13783C
:1077900023F01F0313707047547000202DE9F04F41
:1077A000994BDFF89C820122C7B01A604746974880
:1077B000974E26F035F9974826F038F9934826F089
:1077C00031F90023D8F8004035689FED936ADFED6A
:1077D000935A1846B246A04242DA05EB00114A68B5
:1077E00006EE902AF4EE466AF1EE10FA36D08A6878
:1077F00007EE102AB4EE467AF1EE10FA2ED0CA68DF
:1078000007EE902AF4EE467AF1EE10FA26D066EEF4
:10781000A56AC3EB03120DF58C7E7244FDEEE66A99
:1078200027EE257A67EEA57AB1F800C022F8E3CCFE
:10783000BDEEC77A16EE90CAFDEEE77AC97842F837
:10784000E1CC17EE90EA17EE10CAC1F3460142F8F8
:10785000DDCC42F8D9EC02F8D51C01330130BAE78F
:1078600023B146A800F8E43DFDF70AF83368002B81
:107870009DD03B68002B9ADDDFF8AC9199F8003081
:10788000580718D526F096F84FF47A74A0FB04BC7C
:1078900004FB01CC642200235846614619F066FBC4
:1078A000D8F80030B0FBF4F1009304FB11025C4BFC
:1078B0005C481AF07BFC00252C463B689C4280F219
:1078C0009580594B1B7803F0100202F0FF0B002A41
:1078D0004BD013F0010FDAF8003003EB050B22D088
:1078E0009BF80220BBF8003007929BF80320099315
:1078F00052080692DBF80C0018F03AFECDE90401BC
:10790000DBF8080018F034FECDE90201DBF80400D2
:1079100018F02EFE099BCDE90001002221464348C4
:107920001AF044FC5FE09BF80230BBF8002007939C
:107930009BF8033009925B080693DBF80C0018F003
:1079400017FECDE90401DBF8080018F011FECDE9BF
:107950000201DBF8040018F00BFE099ACDE90001E2
:10796000214633481AF022FC3DE013F0050F3AD0CF
:10797000214630481AF01AFC2B4B1B78D90703D547
:1079800059462D481AF012FC274B1B785A0727D569
:10799000DAF8003003EB050BDBF8040018F0E8FD23
:1079A00002460B469BF80210CDE90A23BBF80030D3
:1079B00005919BF80310099349080491DBF80C002A
:1079C00018F0D6FDCDE90201DBF8080018F0D0FD73
:1079D000DDE90A23CDE90001099918481AF0E6FB10
:1079E0000A201AF0F7FB0134103566E799F80030E9
:1079F0005B0702D50A201AF0EDFB306819F0EAFFA8
:107A000000233B60D3E600BF5870002018700020B0
:107A1000C07100205C70002000F0FF4E00007A442E
:107A200002FD06009E00070054700020BB00070006
:107A3000E3000700080107000E0107001501070019
:107A400064700020000000002DE9F04FDDB004F06C
:107A500077F820B1B24BD3F8E8340A9300E00A90EB
:107A6000B048FFF79DFDB04A1060002840F0218229
:107A7000AE4BAF4D01221A6000230B93AA4CAD48C8
:107A800025F0CEFF206808B1FFF725FDAA4825F0B4
:107A9000CDFF206808B1FFF70BFDA84BA8491C6873
:107AA0001822E700624344A81AF07EFA28AE3A464C
:107AB000A44920A81AF078FA3A46A349304614AFF0
:107AC0001AF072FA2246A14938461AF06DFA99481E
:107AD00025F0A8FF0DF58C780DF1C409C2464FF0D2
:107AE000000BA3450AF1180A09F1140914DA5AE93E
:107AF000080119F08DF849F8180C5AE9060119F037
:107B000087F849F8140C5AE9040119F081F80BF1CF
:107B1000010B49F8100CE4E704F0A6F8002800F087
:107B2000AB80DFF84C92D9F80030002B00F0A48035
:107B300000238DF84F3022F02BFB022C0DF14F0A61
:107B400010900ADDCDF800A0D9F800901AAB2246BB
:107B5000314644A8C847834601E04FF0FF3B22F07E
:107B600017FBBBF1000F11900FDA20AB30AA8DE8A4
:107B7000C000E1B200200BF0C9FD2B7803F07F03B9
:107B80002B70734B00221A7087E0DFF8E8E19EF853
:107B9000003053B11AAF0FCF6E4E0FC697E80300F7
:107BA00086E8030000238EF800302B78DFF8A4A1CC
:107BB00063F07F030DF5B879DAE900012B7000223C
:107BC000654B18F02DFD79E9422318F073FB002274
:107BD000624B18F025FD0022CDE90C01C9E9000136
:107BE0005D4BDAE9020118F01BFDD9E9022318F018
:107BF00061FB0022594B18F013FD0022CDE90E0164
:107C0000C9E90201544BDAE9040118F009FDD9E988
:107C1000042318F04FFB0022504B18F001FD0646DC
:107C20000F46C9E90467B9E80F00AAE80F0099E810
:107C30000300474B9DF84F9083F800908AE80300BB
:107C4000DDE90C0118F0E4FF1590DDE90E0118F0F4
:107C5000DFFF39461690304618F0DAFF14AB019377
:107C600028AB1790009330AA20ABE1B215A88DF88D
:107C700064900BF04BFD10E020AB30AA8DE8C00003
:107C8000E1B200200BF042FD2B7803F07F032B7054
:107C90002F4B00221A704FF0FF3B2B7813F0180F78
:107CA0007FD0002C7DDD190703D42B78DA0663D44E
:107CB000FBE021462A48DFF8AC90DFF8ACA01AF0D0
:107CC00075FA1EAF00215CAB4E1C03EBC103B4423E
:107CD00037F8082F18ED027B98ED006B98ED025BEA
:107CE00013ED344B07DC2B78DB0606D539EA2B0382
:107CF00028BF534602E01B4B00E01B4B08938DED61
:107D0000064B8DED045B8DED026B8DED007B17480E
:107D10001AF04CFAB44208F118083146D3D1C4E73E
:107D2000A89D0020402B0700C4710020587000203F
:107D300054700020187000205C700020107100202A
:107D400060710020387100203070002050700020D9
:107D50001471002020710020000008400000D03F76
:107D6000330107003A0107008D1C07003C010700A2
:107D70002C70002028390020BBF1000FC0F2958044
:107D80009DF84F300493DDE91E23CDE90223DDE9A0
:107D90001C234B48CDE90023DDE91A231AF006FA2B
:107DA00083E058073FF46AAE002C7FF767AED9072F
:107DB00031D5444B0A9AD3F8B09493F963340C93B9
:107DC0000B9BD2E92A67C3EB090020F07F4018F033
:107DD000ADFB39A3D3E9002318F022FC32463B4621
:107DE00018F048FD18F0F4FE8246484618F09EFB55
:107DF00031A3D3E9002318F013FC32463B4618F0B8
:107E000039FD18F0E5FE0C9B014652462E481AF04B
:107E1000CDF9CDF82C902B789A0703D42B785B07FB
:107E20001ED442E01EAF0DF1A0090026B9EC027B82
:107E300058E9022337F8081F8DED047B98ED027B8B
:107E40008DED027B404690ED007B01368DED007B91
:107E50001E481AF0ABF9B44208F11808E6D1DDE784
:107E6000BBF1000F21DB119B109A981A18F05EFBF2
:107E700011A3D3E9002318F0D3FB0A9BD3E92A23EB
:107E800018F0F8FC18F0A4FE9DF84F300493DDE9DB
:107E90001E23CDE90223DDE91C230146CDE90023A1
:107EA0000B48DDE91A231AF081F90A201AF092F939
:107EB000E4E5FFF7FDFADBE50000000080843E40CA
:107EC0005C010700A89D00207201070089010700DE
:107ED000A40107002DE9F041074612480D4625F0A0
:107EE0009FFD17B94FF0FF3413E0002DFADD0E4E61
:107EF0003468002CF6D14FEA0518404619F062FDAF
:107F00000A4A10600028EDD0424639461AF04CF873
:107F10003560074825F08EFD024825F083FD204698
:107F2000BDE8F0811870002064700020C07100204E
:107F30005C70002030B5164C256885B015BB4FF439
:107F4000006019F03FFD2060F0B1124825F064FD9B
:107F50001049114825F068FD03F014FE0F4B039300
:107F60000F4B02934FF40063019323680D490E4CAD
:107F70000093002808BF21460C4B0E202A4625F00E
:107F800027FC03E0002001E04FF0FF3005B030BDDA
:107F900018710020187000205C70002068700020AC
:107FA000587100209D770400497A0400402B070097
:107FB000034B1B681BB1034B186825F031BC70479D
:107FC00018710020587100202DE9F041069C0546EB
:107FD0001448884617461E4625F022FD002C17DD62
:107FE000182229466243E5000F4819F0DDFF2A46B2
:107FF00041460E4819F0D8FF2A4639460C4819F078
:10800000D3FF224631460B4819F0CEFF0A4B1C60C5
:108010000A4825F00FFD034825F004FD0020BDE8C7
:10802000F08100BF187000206071002038710020BE
:108030003070002050700020107100205C70002013
:1080400070B504460D4603F00FFE10B1104B1B68CF
:1080500053B9104B00220020C4E90023C4E90223D5
:10806000C4E90423287070BD0B4A02F118061346B8
:1080700003CBB342206061601A4604F10804F6D1D4
:10808000064B1B782B70064B93F90000C00F70BD98
:108090002C7000200000F87F207100201471002057
:1080A000547000202DE9F04F89B006463848DDF8BD
:1080B0004880139F0C461546994625F0B1FCB6B191
:1080C0000DF1070102A8FFF7BBFFDDE9020118F07F
:1080D0009FFD3060DDE9040118F09AFD7060DDE974
:1080E000060118F095FD9DF80730B0603374002D3F
:1080F0003FD0B9F1000F3ED0B8F1000F3DD0002FB6
:108100003DD0244B244E1B689C42A8BF1C464FF018
:10811000000A4FF0640BA24505F1140506F118069C
:1081200016DA56E9080118F073FD45F8140C56E903
:10813000060118F06DFD45F8100C56E9040118F021
:1081400067FD0AF1010A45F80C0C05F804BCE2E7EA
:10815000E5002A461149484619F026FF2A461049EB
:10816000404619F021FF22460E49384619F01CFFFF
:1081700006E02C4604E04C4602E0444600E03C4663
:10818000034825F04FFC204609B0BDE8F08F00BF42
:1081900018700020107100206871002038710020D4
:1081A000307000205070002008B508490B7813F09B
:1081B000060F03D0BDE80840FFF7E8BAFFF7E6FA7C
:1081C0000B7843F006030B7008BD00BF547000200D
:1081D00008B507490B785B0703D0BDE80840FFF7F7
:1081E000D5BAFFF7D3FA0B7843F007030B7008BD3D
:1081F0005470002008B508490B7813F0180F03D00D
:10820000BDE80840FFF7C2BAFFF7C0FA0B7843F0A9
:1082100018030B7008BD00BF5470002008B5084952
:108220000B7813F0190F03D0BDE80840FFF7AEBA82
:10823000FFF7ACFA0B7843F019030B7008BD00BFD1
:108240005470002008B507490B78DB0603D5BDE85C
:108250000840FFF79BBAFFF799FA0B7843F0100339
:108260000B7008BD54700020034B044A1A604FF491
:10827000004003F0BDB800BF2C70002041F705009E
:10828000F8B5204B204D214E01221A60FCF77CFAF4
:1082900028B9FFF775FA30B1FCF78CFA03E0FCF768
:1082A00099FA0028F5D101F02FFFFFF7A9F830B3B4
:1082B000FFF7C8F8044610B3E06921F09BFE2B6875
:1082C000984721F039FFFEF763FB21F035FF336853
:1082D000074698470BF0C4FB07B918B12046FFF7D3
:1082E0005DF90CE0FFF78CF80028E5D125F05AFA8B
:1082F000074BE2691A60074B1C6025F05BFAFFF739
:10830000D1F8C3E7D07100200439002000390020E3
:10831000484700207095002030B5164D2C6885B078
:108320000CBB4FF4007019F04DFB2860E8B1FFF76B
:1083300095F9002806DA286819F04CFB2C606FF0DC
:10834000010014E00C4B03930C4B02934FF40073A9
:1083500001932B6800931E20094B0A49224625F001
:1083600037FA204603E0002001E04FF0FF3005B06F
:1083700030BD00BFCC710020D8710020C871002032
:10838000C401070081820400014B186825F048BA37
:10839000C871002008B502F0FFFC10B1838B0133D7
:1083A0008383024A13680133136008BD2C3900200F
:1083B0002DE9F0438FB000F051FD03F071FC18B9C6
:1083C00003F06EFCD0B108E0FFF7DAF90028F7D12E
:1083D0000120002125F038FAF6E703F0A3FB68B985
:1083E000FF2368468DF800308DF801308DF802309B
:1083F0008DF803308DF80430FCF732FA8B4BDFF840
:108400005C828B4E8B4F012200241A602546D8F8DF
:108410000030012B1DD1884B1B689847874B1B6888
:108420009847874B1B6898473368864A1BB10021E1
:10843000013B116033601368591C0A2B116040F234
:10844000EA80814B1B68013300F0E580FFF7A2FF53
:10845000E1E03368002B36D003F094FB002832D1E2
:10846000784B186014B1794B1B68984733680A2B16
:1084700021D903F057FB78B10BF034FB60B10BF05E
:1084800015FB044630B10A24B5FBF4F304FB135486
:10849000BCB90CE06E4B0BE003F052FB20B10BF0CB
:1084A00021FB08B16A4B0AE015F0010409D1634BC6
:1084B0001B68984739E0654B1B689847654B1B68FC
:1084C0009847002431E003F05DFB20B1624B1B684C
:1084D00098475F4B17E003F025FB10B1EB0714D46E
:1084E00008E003F02DFB50B10A22B5FBF2F302FBCA
:1084F000135353B9504B1B689847504B03E0534BF1
:108500001B689847534B1B68984703F03BFB58B9CF
:108510004C4A1368591C642B116005D94A4B1B68DF
:10852000013301D0FFF736FF012433680BB1013B63
:1085300033600A22B5FBF2F302FB13533BB902F09E
:108540002BFC814618B1FEF795FAC9F8000003F03C
:10855000A7FB00285BD003F015FB002857D103F0E0
:10856000EFFA48B14FF01409B5FBF9F309FB1359C1
:10857000B9F1000F4BD104E003F0D4FA0028F1D197
:1085800045E003F0CFFA00B302A80BF07DFC002811
:108590000ADAFF238DF809304FF6FF73ADF80C307F
:1085A000ADF80E30CDF810909DF809308DF8003000
:1085B000BDF80C30ADF801306846BDF80E30ADF8AE
:1085C0000330FCF74DF9049801E00BF069FAFCF771
:1085D0004FF90023D7F8CC10B7F8D0E08DF814305D
:1085E00018467045C2B20CDA59B1102A09D00EAB48
:1085F00003EB42020B6822F8233C0130496C012353
:10860000EFE70BB18DF8142005A8FCF721F9012D37
:1086100001D901F079FD03F0EFFA08B1FEF776F920
:1086200014200021013525F00FF9F0E63C770020F9
:1086300030770020A89D002010390020FC38002051
:108640000C390020807600202C39002018390020B9
:1086500024390020203900201C39002038770020E0
:108660001FB5094B0393094B02934FF480630193A9
:10867000074B00930022074B07490F2025F0A8F86D
:1086800005B05DF804FB00BF887600203477002039
:1086900080720020C7010700B1830400014B1868F5
:1086A00025F0BEB834770020022810B50AD0032880
:1086B0000ED001281CD10F4B00221A600E4B28222D
:1086C0001A6010BD0D4B1A68012A11D0012203E077
:1086D0000A4B1A6862B100221A60094B1B6898475E
:1086E000084B1B689847084BBDE810401B681847AB
:1086F00010BD00BF2C3900203077002038770020D3
:108700001C3900202439002014390020074B10B5F3
:10871000186825F083F8064B1B689847054B1B68C3
:108720009847054BBDE810401B6818473477002078
:1087300018390020203900200039002008B5064BE8
:108740001B689847054B1B689847054B1868BDE8A0
:10875000084025F065B800BF1839002020390020F6
:108760003477002008B500F079FB044A1368013320
:1087700013600CF09BFA0CF065FAFAE740830020D6
:10878000F0B5424C85B04FF49E620021204619F0AE
:10879000A5FC03F0C7F948B14FF4EA7019F012F9DB
:1087A0004FF4EA72C4F8E80400210DE003F0FAF98E
:1087B000054603F0E7F90543EED1E02019F002F990
:1087C000E022C4F8E804294619F088FCD4F8E8341B
:1087D000F3B925F0EFF84FF47A75A0FB056705FBB8
:1087E0000177642200233046394618F0BFFB284B3E
:1087F0000393284B029334230193274BB0FBF5F1ED
:10880000009305FB1102254B254819F0CFFC1AE017
:10881000244D1E4BAB6203F0B5F918B128460CF09D
:10882000EBFE10E003F0BEF918B1284609F096FE01
:1088300009E003F077F918B1284606F0E7FD02E0F9
:10884000284611F0C7FA0CF0F7F90CF007FA00F01F
:1088500005FB0020FCF7BCFE134A136801330546F4
:10886000136000F561662846FCF779FE85F89A0DDD
:1088700018B10C4809F0FDFEF5E7D4F8843003B1D7
:108880009847304625F0B2F8EDE700BFA89D0020DC
:10889000F901070000020700CB010700C6FC060033
:1088A000DC010700489C0020408300202DE9FF41A7
:1088B000114B124E124D134C134900274FF4C06850
:1088C0001F603A46039602950094CDF804800F4B42
:1088D0000520A8360435444424F07AFF0396029517
:1088E000CDF8048000940A4B0A493A46062024F049
:1088F0006FFF04B0BDE8F08140830020508300206A
:10890000448300204077002081870400050207008F
:108910000C0207006587040010B5044C206824F0A1
:108920007FFF6068BDE8104024F07ABF44830020D8
:1089300018B100F6086025F05DB870472DE9F047E2
:108940008EB002F08FFC054608B90025B2E1002088
:10895000FCF73EFE04460028F7D040F628620021CE
:1089600019F0BCFBAE4BC4F8F03DAE4BC4F8F43D7F
:10897000AD4BC4F8F83DAD4BC4F8FC3DAC4BC4F86E
:10898000003E1323C4F8043EAA4BC4F8E83DAA4BAA
:10899000C4F8EC3D2B7884F8543D6B7884F8553D51
:1089A000AB7884F8563DEB7884F8573D6B7984F8C2
:1089B000583D2B7984F8593DAB7984F85A3DEB79D1
:1089C00084F85B3D2B7A84F85C3DAB89A4F85E3D6E
:1089D0006B7A84F85D3D2046FCF702FE0028B4DB8C
:1089E00006AD2B460DF1160205A908A802F060FCA1
:1089F000002878DA00950DF1160305AA08A920468B
:108A000013F026FC00280ADA8C4B0893C0238DF85B
:108A100014300023ADF81630ADF8183063E003F0E1
:108A200069F900285FD09DF81450002D5BD0BDF887
:108A30001680B8F1000F56D0BDF91890B9F1000FAB
:108A400051D00898C0F3421ABAF1070F41D000F094
:108A50001F0017F06BFD0022794B17F0E1FD064671
:108A60000AEB4A00C0F112000F4617F05FFD024604
:108A70000B463046394617F01DFC0022714B064666
:108A80000F4618F035F8002840F0378100226D4B72
:108A90003046394618F036F800226B4B60B130464C
:108AA000394618F04DF8B0B130460022674B3946D0
:108AB00017F0FEFB022623E13046394618F02CF869
:108AC00048B90022624B3046394618F02FF810B9E9
:108AD00009E000260027304600225E4B394617F099
:108AE000E7FB03260CE14FF0FF36BDF81610089B9C
:108AF0009DF81420A4F8841DBDF81810A4F8861D54
:108B0000C4F8803D84F88A2D84F8602DC4F8643D53
:108B100007A90DF11A0002F0FDFB002814DA03F09A
:108B200079F807AA0DF11A0118B1204613F07FFB5E
:108B300002E0204613F06AFB0028BEBF44F258034F
:108B4000ADF81A30ADF81C30BDF81A30A4F86A3D03
:108B5000BDF81C30A4F8683D0DF1150002F0F0FBE3
:108B6000002809DA0DF11501204613F09DFB0028BD
:108B7000BCBF0F238DF815309DF8153084F88B3D60
:108B80000DF11E0002F0ECFB18B9BDF81E30A4F880
:108B9000343D2046FCF7D8F92046FCF7DAF9B4F862
:108BA0006A1D204612F0A6FAB4F8681D204612F09D
:108BB0009BFA94F88B1D204613F057F9B4F8341D36
:108BC000204612F0F1FA2046FCF786FC03F0A0F8EC
:108BD0000146204609F018FD002104F6086024F043
:108BE00001FF002104F5616024F0FCFE002104F681
:108BF000186024F0F7FE002394F8040E164A009340
:108C00000121234623F030FA1020FDF7A1FB28B301
:108C10008378042B22D1D0F80300099020E000BF14
:108C200021C405002DC4050081C40500D5C405007C
:108C300055C505003D520400C15104008565452518
:108C40000000E03F000027400000234000001040EB
:108C50000000214000000440318904003B4B09938F
:108C600004F69453099A1A6003F044F800B39DF88F
:108C70001430EBB1BDF81630D3B1BDF91830BBB12B
:108C8000002E15DDD4F8363D314A009610219BB2F6
:108C90000AA819F00FFB054601460AA80BF0C7FB0E
:108CA00030B902F063FC18B9E9B20AA8FBF7A4FDD9
:108CB000254604BB24F07EFE4FF47A74A0FB0467C3
:108CC00004FB0177642200233046394618F04EF940
:108CD000204B029340F2171301931F4BB0FBF4F1AA
:108CE000009304FB110203951C4B1D4819F05EFA1A
:108CF0004FF0FF3026E0002024E01A490126002032
:108D00000022184B17F0D4FA02460B4617F0D2FA9D
:108D100017F05EFFC2B242F0400342F060001B0455
:108D200043EA002042F08003034342F0200043EA7C
:108D3000006042464B462946089002F0D5FA02F000
:108D400015FCD2E60EB0BDE8F08700BF48E13AC09E
:108D500014020700F3FC060049020700C6FC0600E7
:108D60002102070000001840F8B54FF0A04403238B
:108D7000C4F860374FF08073C4F80C35022000252A
:108D800021F07EF8C4F86057FFF7D8FDA8423EDB1B
:108D90002846FCF71DFC1E4B012205461A6000F612
:108DA0000866304624F022FE01270021D5F8042E63
:108DB00002F5E07354F82330DB0709D5D4F8043505
:108DC00007FA02F00340D34014BF0123002304E05C
:108DD000D4F81035D34003F0010323B1284612F034
:108DE000E3FE0121E2E749B1D5F8203E002BCCBFDC
:108DF00005F6186005F5616024F0FCFD01F0CCFF7C
:108E000010B1836901338361FDF780FDC9E7F8BDC7
:108E10004C8500201FB5094B0393094B02934FF477
:108E2000C0630193074B00930022074B07490520BD
:108E300024F0CEFC05B05DF804FB00BFA084002048
:108E40004885002050850020F3FC0600698D040051
:108E5000014B186824F0E4BC4885002010B5044C90
:108E6000236823B90220002124F0EEFCF8E710BDAE
:108E70004C850020024B1B6803B11847704700BFA8
:108E80005C8B0020024B1B6803B11847704700BF82
:108E9000808B0020064B1B689B0708D54FF0A04332
:108EA0000322C3F868274FF08062C3F80825704793
:108EB000749C0020024B1B6803B11847704700BF29
:108EC000BC8C0020114B07B51868FEF704FB104B53
:108ED0001B7873B10F4B1B785BB121F0F5FB21F0D0
:108EE000AFFD012300930C4A002302210B2023F045
:108EF000BBF821F00BFB01230093074A002302215A
:108F0000032023F0B1F803B05DF804FB788B002058
:108F1000748B0020628B00201D8F04000421014807
:108F200024F06EBDB08C002008B5242024F03CFD58
:108F30000A4B1B784BB94FF0A0430322C3F86827B4
:108F40004FF08062C3F8082502E0054B01221A7039
:108F50002420BDE8084024F029BD00BF688B002014
:108F6000AD8C002008B516F0B9FD044B1B780BB191
:108F700021F000FCBDE8084016F0DABD748B00203B
:108F800038B5242024F010FD164802F041FA24F0F0
:108F900009FC0C2018F016FD044624F00BFC0023FD
:108FA0002370114B1B786380104BA36024F0FAFBF5
:108FB000608818F007FD054624F0FCFB62880C4928
:108FC0006560284618F0F0FF204614F0A9FE094815
:108FD0006FF0020124F016FD2420BDE8384024F093
:108FE000E5BC00BF749C0020548B0020F98F040066
:108FF000848B0020B08C002038B5054624200C4618
:1090000024F0D2FC0F4B1A78012A15D10E4B0F48D1
:109010001D60FF2C0D4B83BFFF211970B4FBF1F4D1
:109020001C7094BF5A705C70094B00221A700221A8
:10903000FF23084A21F05CFA2420BDE8384024F0E0
:10904000B5BC00BF688B0020508B0020608B0020D7
:10905000A48C0020848B002010B5064821F032FA41
:10906000054B064A064800211970BDE81040FF2351
:1090700021F03EBAA1900400AC8C0020848B00202B
:10908000608B002008B502F06BFD28B10821034871
:10909000BDE8084024F0B4BC08BD00BFB08C00207F
:1090A0007FB504AB03E907009DF80440012C40F0B4
:1090B0008A80664E029D3178022922D003293BD056
:1090C000002940F0C080624A1378FF2B07D1614825
:1090D0000478002C00F0B78001705F4827E05F4BF8
:1090E0005F48EDB202211D7024F08AFC4FF0A043CE
:1090F0000322C3F868274FF08062C3F80C25347050
:10910000A1E0544B1A78002A00F09D8000221A70CA
:109110004FF0A0430322C3F868274F4951484FF04E
:109120008062C3F80C250978494A0068FF2304B01F
:10913000BDE8704021F0DCB9464B1A78002A00F0F7
:10914000828000261E704FF0A0434FF08062C3F86B
:1091500068174148C3F80C25434B1C784378A34259
:1091600003D8FF233A4A314606E03E4B017818689F
:10917000374AFF2304FB0100354E21F0B9F933785B
:10918000FF2B60D024F00EFB0C2018F01BFC0446D3
:1091900024F010FB012323700023A360658024F0DA
:1091A00001FB608818F00EFC054624F003FB6560A7
:1091B00062883146284618F0F7FE204604B0BDE824
:1091C000704014F0ADBD002C3DD1224B1F4901224F
:1091D0001A700B78022B07D0032B0ED0934232D19A
:1091E000FFF758FE022306E01F4A1378013313707D
:1091F000FFF750FE03230B7025E01B4A1648137837
:109200004078984218D80C7014F0A0FB02F0A8FC2B
:1092100018B12021124824F0F3FB144B1A7892B1B4
:109220004FF0A0420321C2F868174FF08061C2F8E6
:10923000081500221A7006E00133137004B0BDE86F
:109240007040FFF727BE04B070BD00BF688B0020E0
:10925000848B0020AC8C0020608B0020548B00207D
:10926000B08C0020508B0020A48C0020AD8C0020FE
:10927000024B1B6803B11847704700BF648B002086
:10928000024B1B6803B11847704700BF6C8B00206E
:10929000024B1B6803B11847704700BFC08C002009
:1092A0002DE9F0414E4A4F48002123F0C5FF044606
:1092B0000028F7D14C484D4E4D4D24F09DFB012325
:1092C0002B703470FFF7F6FDFFF7DCFD02F048FC71
:1092D00040B1484B48481C70FEF762F9474B186094
:1092E000FFF7F0FD434C274602223F213E4824F081
:1092F0008BFBC20701D5424B02E0830705D5414BEA
:109300001B68002BF0D09847EEE741071DD50720DA
:1093100024F04AFB23788BB9384B1868FEF7C8F85D
:109320002B7823B10B2022F0F1FEFFF7ABFD0320D9
:1093300022F0ECFEFFF7BEFD01233B702A486FF0E0
:10934000040124F05FFB072047E0020717D52378CC
:10935000012B0ED12B78012B09D896F80080B8F19B
:10936000000F04D1FFF7AEFD84F8008001E0022376
:109370003B706FF008011C4824F044FBB4E710F088
:10938000100815D0032024F00FFB2378022B08D1FE
:1093900096F80080B8F1000F03D1FFF793FD84F831
:1093A000008011486FF0100124F02CFB032014E022
:1093B000830699D5242024F0F7FA2378022B06D1CE
:1093C0002B78012B03D8FFF77DFD84F80080064839
:1093D0006FF0200124F016FB242024F0E7FA83E745
:1093E000758E040060020700B08C0020688B00209E
:1093F000628B0020B88C00205A020700788B002076
:10940000708B0020588B0020024B1B6803B118475B
:10941000704700BFA88C00200A4B1A7852B90A4A3C
:109420000A4911600A4A0B4911600B4A0B49116045
:1094300001221A700A4B0B4A1A600B4B0B4A1A6036
:10944000704700BF7C8B0020A88C0020658F040033
:10945000648B002085900400C08C0020298F0400BC
:10946000BC8C002059900400588B0020818F040090
:10947000014B1878704700BF748B0020014B18789F
:10948000704700BF7C8B002010B5002088B000F032
:1094900053FE044601A813F0B6FA054B054A2146CF
:1094A000002818BF1A46044818F080FE08B010BD06
:1094B0006702070064020700F101070013B50021ED
:1094C0000DF10700FCF707FE0446002000F034FE13
:1094D000054B064A0146002C18BF1A46044818F0EE
:1094E00065FE02B010BD00BF6702070064020700FE
:1094F000F1010700F0B50120C1B000F01DFE0446E7
:1095000000F012FE02283AD1012000F015FE19F0F9
:10951000D7F8B0F5FA7F32D8012000F00DFE19F02F
:10952000CFF801282BD9012000F006FE19F0C8F869
:1095300001AEC0F347052A463146204616F0A0FA90
:109540000746E0B929463046FCF7C5FD044678B920
:10955000104818F02BFEAC4205DA315D0E4818F0C9
:1095600025FE0134F7E729460C4818F01FFE0EE0EF
:10957000384600F0E1FD0A4A01460A4805E00020AD
:1095800000F0DAFD01460848FA2218F00FFE41B05B
:10959000F0BD00BF6E020700EB090700750207006F
:1095A00067020700F10107007E02070030B5C1B075
:1095B000FF220021684618F091FD00F0B5FD01285A
:1095C00009DC002000F0B8FD0146214841B0BDE8AB
:1095D000304018F0EBBD00F0A7FD0138C5B2002403
:1095E00000F0A2FD84420DDA0134204600F0A4FD13
:1095F00018B1204600F0AAFDC0B20DEB040303F839
:10960000010CEDE74FF0A0430322C3F868274FF0A9
:109610008062C3F80C250C2018F0D4F900230370E5
:109620000C4B836004464580284618F0CBF92A4647
:109630006060694618F0B8FC204614F071FB28B948
:10964000054841B0BDE8304018F01ABE41B030BD09
:109650009E0207005D960400BB020700F8B50746AE
:109660000D480E4618F00CFE00241425B4420EDA04
:10967000395D0A4818F09AFD94FBF5F305FB134396
:10968000132B02D10A2018F0A5FD0134EEE70A20C1
:10969000BDE8F84018F09EBDCE02070003060700A3
:1096A00030B501208DB000F047FD054600F03CFDCF
:1096B00002282CD1012000F03FFD19F001F82028EC
:1096C00025D101AC28461022214616F0D9F90546CD
:1096D000E8B905A8079413F087F9044670B9104853
:1096E00018F064FD079B0F48195D013418F05EFD0A
:1096F000102CF7D10A2018F06DFD0FE0284600F07D
:109700001BFD094A0146094818F050FD06E00020FB
:1097100000F012FD0146064818F048FD0DB030BDBE
:10972000DD020700EB09070067020700F1010700EF
:10973000E702070030B5C1B040A9FA2301AD01F836
:10974000FD3D2846FCF7B1FC044680B90D4818F0F1
:109750002DFD9DF803108C4205DA295D0A4818F0AA
:1097600025FD0134F5E7094818F020FD07E0002049
:1097700000F0E2FC064A0146064818F017FD41B029
:1097800030BD00BF6E020700EB090700750207003D
:1097900064020700F10107001FB500F0C5FC0A28AC
:1097A00007D0002000F0C8FC01463F4818F0FEFC3E
:1097B00077E0012000F0C0FC18B1012000F0C6FCE9
:1097C000C0B28DF80C00022000F0B6FC28B10220D7
:1097D00000F0BCFC003018BF01208DF80B00032006
:1097E00000F0AAFC28B1032000F0B0FC003018BF44
:1097F00001208DF80A00042000F09EFC28B104200E
:1098000000F0A4FC003018BF01208DF809000520ED
:1098100000F092FC28B1052000F098FC003018BF41
:1098200001208DF80800062000F086FC28B10620F3
:1098300000F08CFC003018BF01208DF807000720D5
:1098400000F07AFC28B1072000F080FC003018BF3F
:1098500001208DF80600082000F06EFC18B10820E9
:1098600000F074FCC0B28DF80400092000F064FC24
:1098700028B1092000F06AFC003018BF01208DF8E3
:109880000500002000F058FC044601A8FCF71BFB73
:10989000064B074A2146002808BF1A46054818F01B
:1098A00085FC04B010BD00BF070307006402070079
:1098B00067020700F101070013B500F035FC082826
:1098C00007D0002000F038FC0146344818F06EFC48
:1098D00061E0012000F030FC28B1012000F036FCEE
:1098E000003018BF01208DF80600022000F024FC93
:1098F00028B1022000F02AFC003018BF01208DF8AA
:109900000500032000F018FC28B1032000F01EFC25
:10991000003018BF01208DF80400042000F00CFC7A
:1099200028B1042000F012FC003018BF01208DF88F
:109930000300052000F000FC28B1052000F006FC23
:10994000003018BF01208DF80200062000F0F4FB63
:1099500018B1062000F0FAFBC0B28DF80000072015
:1099600000F0EAFB28B1072000F0F0FB003018BF40
:1099700001208DF80100002000F0DEFB044668465F
:10998000FCF778FA064B074A2146002808BF1A461A
:10999000054818F00BFC02B010BD00BF5E030700C5
:1099A0006402070067020700F10107001FB500F01D
:1099B000BBFB042807D0002000F0BEFB014619487D
:1099C00018F0F4FB2BE0012000F0B6FB10B10120F1
:1099D00000F0BCFB0090022000F0AEFB10B10220B2
:1099E00000F0B4FB0190032000F0A6FB10B10320AF
:1099F00000F0ACFB6423029068468DF80C30FCF755
:109A0000DCFA0446002000F097FB074B074A0146AA
:109A100012EA240238BF1A46054818F0C7FB04B002
:109A200010BD00BF9A030700640207006702070029
:109A3000F10107007FB502A8FCF7D6FA68B900F07B
:109A40007BFB9DF814300193049B00930146039B1C
:109A5000029A074818F0AAFB07E0002000F06CFB10
:109A6000044A0146044818F0A1FB07B05DF804FB66
:109A7000B103070067020700F101070007B50DF108
:109A8000060101A8FCF7DBFA00284FF0000007DA16
:109A900000F052FB094A0146094818F087FB09E02B
:109AA00000F04AFBBDF80630BDF804200146054829
:109AB00018F07CFB03B05DF804FB00BF67020700F1
:109AC000F1010700CE03070070B500F02DFB03285D
:109AD00008D0002000F030FBBDE87040014615487A
